{
	"contracts/wallet.sol": {
		"Wallet": {
			"abi": [
				{
					"inputs": [],
					"stateMutability": "nonpayable",
					"type": "constructor"
				},
				{
					"anonymous": false,
					"inputs": [
						{
							"indexed": true,
							"internalType": "address",
							"name": "Account",
							"type": "address"
						},
						{
							"indexed": false,
							"internalType": "uint256",
							"name": "balance",
							"type": "uint256"
						}
					],
					"name": "Deposit",
					"type": "event"
				},
				{
					"anonymous": false,
					"inputs": [
						{
							"indexed": true,
							"internalType": "address",
							"name": "Account",
							"type": "address"
						},
						{
							"indexed": false,
							"internalType": "uint256",
							"name": "amount",
							"type": "uint256"
						}
					],
					"name": "Transfer",
					"type": "event"
				},
				{
					"anonymous": false,
					"inputs": [
						{
							"indexed": true,
							"internalType": "address",
							"name": "Account",
							"type": "address"
						},
						{
							"indexed": false,
							"internalType": "uint256",
							"name": "amount",
							"type": "uint256"
						}
					],
					"name": "withdraw",
					"type": "event"
				},
				{
					"inputs": [],
					"name": "deposit",
					"outputs": [],
					"stateMutability": "payable",
					"type": "function"
				},
				{
					"inputs": [],
					"name": "my_balanca",
					"outputs": [
						{
							"internalType": "uint256",
							"name": "",
							"type": "uint256"
						}
					],
					"stateMutability": "view",
					"type": "function"
				},
				{
					"inputs": [],
					"name": "total_balance",
					"outputs": [
						{
							"internalType": "uint256",
							"name": "",
							"type": "uint256"
						}
					],
					"stateMutability": "view",
					"type": "function"
				},
				{
					"inputs": [
						{
							"internalType": "address payable",
							"name": "_to",
							"type": "address"
						},
						{
							"internalType": "uint256",
							"name": "amount",
							"type": "uint256"
						}
					],
					"name": "transfer_balance",
					"outputs": [
						{
							"internalType": "bool",
							"name": "",
							"type": "bool"
						}
					],
					"stateMutability": "nonpayable",
					"type": "function"
				},
				{
					"inputs": [
						{
							"internalType": "uint256",
							"name": "amount",
							"type": "uint256"
						}
					],
					"name": "withdraw_balance",
					"outputs": [
						{
							"internalType": "bool",
							"name": "",
							"type": "bool"
						}
					],
					"stateMutability": "nonpayable",
					"type": "function"
				}
			],
			"devdoc": {
				"kind": "dev",
				"methods": {},
				"version": 1
			},
			"evm": {
				"assembly": "    /* \"contracts/wallet.sol\":74:1557  contract Wallet {... */\n  mstore(0x40, 0x80)\n    /* \"contracts/wallet.sol\":342:393  constructor() {... */\n  callvalue\n  dup1\n  iszero\n  tag_1\n  jumpi\n  0x00\n  dup1\n  revert\ntag_1:\n  pop\n    /* \"contracts/wallet.sol\":375:385  msg.sender */\n  caller\n    /* \"contracts/wallet.sol\":367:372  owner */\n  0x00\n  dup1\n    /* \"contracts/wallet.sol\":367:385  owner = msg.sender */\n  0x0100\n  exp\n  dup2\n  sload\n  dup2\n  0xffffffffffffffffffffffffffffffffffffffff\n  mul\n  not\n  and\n  swap1\n  dup4\n  0xffffffffffffffffffffffffffffffffffffffff\n  and\n  mul\n  or\n  swap1\n  sstore\n  pop\n    /* \"contracts/wallet.sol\":74:1557  contract Wallet {... */\n  dataSize(sub_0)\n  dup1\n  dataOffset(sub_0)\n  0x00\n  codecopy\n  0x00\n  return\nstop\n\nsub_0: assembly {\n        /* \"contracts/wallet.sol\":74:1557  contract Wallet {... */\n      mstore(0x40, 0x80)\n      jumpi(tag_1, lt(calldatasize, 0x04))\n      shr(0xe0, calldataload(0x00))\n      dup1\n      0x12b33381\n      eq\n      tag_2\n      jumpi\n      dup1\n      0x2565b1b8\n      eq\n      tag_3\n      jumpi\n      dup1\n      0xd0e30db0\n      eq\n      tag_4\n      jumpi\n      dup1\n      0xd2ff791f\n      eq\n      tag_5\n      jumpi\n      dup1\n      0xd8180497\n      eq\n      tag_6\n      jumpi\n    tag_1:\n      0x00\n      dup1\n      revert\n        /* \"contracts/wallet.sol\":1251:1550  function transfer_balance (address payable _to, uint256 amount) public returns (bool) {... */\n    tag_2:\n      callvalue\n      dup1\n      iszero\n      tag_7\n      jumpi\n      0x00\n      dup1\n      revert\n    tag_7:\n      pop\n      tag_8\n      0x04\n      dup1\n      calldatasize\n      sub\n      dup2\n      add\n      swap1\n      tag_9\n      swap2\n      swap1\n      tag_10\n      jump\t// in\n    tag_9:\n      tag_11\n      jump\t// in\n    tag_8:\n      mload(0x40)\n      tag_12\n      swap2\n      swap1\n      tag_13\n      jump\t// in\n    tag_12:\n      mload(0x40)\n      dup1\n      swap2\n      sub\n      swap1\n      return\n        /* \"contracts/wallet.sol\":943:1245  function withdraw_balance (uint256 amount) public returns (bool) {... */\n    tag_3:\n      callvalue\n      dup1\n      iszero\n      tag_14\n      jumpi\n      0x00\n      dup1\n      revert\n    tag_14:\n      pop\n      tag_15\n      0x04\n      dup1\n      calldatasize\n      sub\n      dup2\n      add\n      swap1\n      tag_16\n      swap2\n      swap1\n      tag_17\n      jump\t// in\n    tag_16:\n      tag_18\n      jump\t// in\n    tag_15:\n      mload(0x40)\n      tag_19\n      swap2\n      swap1\n      tag_13\n      jump\t// in\n    tag_19:\n      mload(0x40)\n      dup1\n      swap2\n      sub\n      swap1\n      return\n        /* \"contracts/wallet.sol\":405:606  function deposit() public payable {... */\n    tag_4:\n      tag_20\n      tag_21\n      jump\t// in\n    tag_20:\n      stop\n        /* \"contracts/wallet.sol\":738:937  function total_balance() public view returns(uint) {... */\n    tag_5:\n      callvalue\n      dup1\n      iszero\n      tag_22\n      jumpi\n      0x00\n      dup1\n      revert\n    tag_22:\n      pop\n      tag_23\n      tag_24\n      jump\t// in\n    tag_23:\n      mload(0x40)\n      tag_25\n      swap2\n      swap1\n      tag_26\n      jump\t// in\n    tag_25:\n      mload(0x40)\n      dup1\n      swap2\n      sub\n      swap1\n      return\n        /* \"contracts/wallet.sol\":614:732  function my_balanca() public view returns(uint) {... */\n    tag_6:\n      callvalue\n      dup1\n      iszero\n      tag_27\n      jumpi\n      0x00\n      dup1\n      revert\n    tag_27:\n      pop\n      tag_28\n      tag_29\n      jump\t// in\n    tag_28:\n      mload(0x40)\n      tag_30\n      swap2\n      swap1\n      tag_26\n      jump\t// in\n    tag_30:\n      mload(0x40)\n      dup1\n      swap2\n      sub\n      swap1\n      return\n        /* \"contracts/wallet.sol\":1251:1550  function transfer_balance (address payable _to, uint256 amount) public returns (bool) {... */\n    tag_11:\n        /* \"contracts/wallet.sol\":1331:1335  bool */\n      0x00\n        /* \"contracts/wallet.sol\":1366:1373  balance */\n      0x01\n        /* \"contracts/wallet.sol\":1366:1385  balance[msg.sender] */\n      0x00\n        /* \"contracts/wallet.sol\":1374:1384  msg.sender */\n      caller\n        /* \"contracts/wallet.sol\":1366:1385  balance[msg.sender] */\n      0xffffffffffffffffffffffffffffffffffffffff\n      and\n      0xffffffffffffffffffffffffffffffffffffffff\n      and\n      dup2\n      mstore\n      0x20\n      add\n      swap1\n      dup2\n      mstore\n      0x20\n      add\n      0x00\n      keccak256\n      sload\n        /* \"contracts/wallet.sol\":1356:1362  amount */\n      dup3\n        /* \"contracts/wallet.sol\":1356:1385  amount <= balance[msg.sender] */\n      gt\n      iszero\n        /* \"contracts/wallet.sol\":1348:1407  require(amount <= balance[msg.sender], \"Insuffecient Fund\") */\n      tag_32\n      jumpi\n      mload(0x40)\n      0x08c379a000000000000000000000000000000000000000000000000000000000\n      dup2\n      mstore\n      0x04\n      add\n      tag_33\n      swap1\n      tag_34\n      jump\t// in\n    tag_33:\n      mload(0x40)\n      dup1\n      swap2\n      sub\n      swap1\n      revert\n    tag_32:\n        /* \"contracts/wallet.sol\":1440:1446  amount */\n      dup2\n        /* \"contracts/wallet.sol\":1418:1425  balance */\n      0x01\n        /* \"contracts/wallet.sol\":1418:1437  balance[msg.sender] */\n      0x00\n        /* \"contracts/wallet.sol\":1426:1436  msg.sender */\n      caller\n        /* \"contracts/wallet.sol\":1418:1437  balance[msg.sender] */\n      0xffffffffffffffffffffffffffffffffffffffff\n      and\n      0xffffffffffffffffffffffffffffffffffffffff\n      and\n      dup2\n      mstore\n      0x20\n      add\n      swap1\n      dup2\n      mstore\n      0x20\n      add\n      0x00\n      keccak256\n      0x00\n        /* \"contracts/wallet.sol\":1418:1446  balance[msg.sender] -=amount */\n      dup3\n      dup3\n      sload\n      tag_35\n      swap2\n      swap1\n      tag_36\n      jump\t// in\n    tag_35:\n      swap3\n      pop\n      pop\n      dup2\n      swap1\n      sstore\n      pop\n        /* \"contracts/wallet.sol\":1457:1466  bool sent */\n      0x00\n        /* \"contracts/wallet.sol\":1468:1471  _to */\n      dup4\n        /* \"contracts/wallet.sol\":1468:1476  _to.send */\n      0xffffffffffffffffffffffffffffffffffffffff\n      and\n        /* \"contracts/wallet.sol\":1468:1484  _to.send(amount) */\n      0x08fc\n        /* \"contracts/wallet.sol\":1477:1483  amount */\n      dup5\n        /* \"contracts/wallet.sol\":1468:1484  _to.send(amount) */\n      swap1\n      dup2\n      iszero\n      mul\n      swap1\n      mload(0x40)\n      0x00\n      mload(0x40)\n      dup1\n      dup4\n      sub\n      dup2\n      dup6\n      dup9\n      dup9\n      call\n      swap4\n      pop\n      pop\n      pop\n      pop\n        /* \"contracts/wallet.sol\":1457:1484  bool sent =_to.send(amount) */\n      swap1\n      pop\n        /* \"contracts/wallet.sol\":1509:1512  _to */\n      dup4\n        /* \"contracts/wallet.sol\":1500:1520  Transfer(_to,amount) */\n      0xffffffffffffffffffffffffffffffffffffffff\n      and\n      0x69ca02dd4edd7bf0a4abb9ed3b7af3f14778db5d61921c7dc7cd545266326de2\n        /* \"contracts/wallet.sol\":1513:1519  amount */\n      dup5\n        /* \"contracts/wallet.sol\":1500:1520  Transfer(_to,amount) */\n      mload(0x40)\n      tag_38\n      swap2\n      swap1\n      tag_26\n      jump\t// in\n    tag_38:\n      mload(0x40)\n      dup1\n      swap2\n      sub\n      swap1\n      log2\n        /* \"contracts/wallet.sol\":1538:1542  sent */\n      dup1\n        /* \"contracts/wallet.sol\":1531:1542  return sent */\n      swap2\n      pop\n      pop\n        /* \"contracts/wallet.sol\":1251:1550  function transfer_balance (address payable _to, uint256 amount) public returns (bool) {... */\n      swap3\n      swap2\n      pop\n      pop\n      jump\t// out\n        /* \"contracts/wallet.sol\":943:1245  function withdraw_balance (uint256 amount) public returns (bool) {... */\n    tag_18:\n        /* \"contracts/wallet.sol\":1002:1006  bool */\n      0x00\n        /* \"contracts/wallet.sol\":1037:1044  balance */\n      0x01\n        /* \"contracts/wallet.sol\":1037:1056  balance[msg.sender] */\n      0x00\n        /* \"contracts/wallet.sol\":1045:1055  msg.sender */\n      caller\n        /* \"contracts/wallet.sol\":1037:1056  balance[msg.sender] */\n      0xffffffffffffffffffffffffffffffffffffffff\n      and\n      0xffffffffffffffffffffffffffffffffffffffff\n      and\n      dup2\n      mstore\n      0x20\n      add\n      swap1\n      dup2\n      mstore\n      0x20\n      add\n      0x00\n      keccak256\n      sload\n        /* \"contracts/wallet.sol\":1027:1033  amount */\n      dup3\n        /* \"contracts/wallet.sol\":1027:1056  amount <= balance[msg.sender] */\n      gt\n      iszero\n        /* \"contracts/wallet.sol\":1019:1078  require(amount <= balance[msg.sender], \"Insuffecient Fund\") */\n      tag_40\n      jumpi\n      mload(0x40)\n      0x08c379a000000000000000000000000000000000000000000000000000000000\n      dup2\n      mstore\n      0x04\n      add\n      tag_41\n      swap1\n      tag_34\n      jump\t// in\n    tag_41:\n      mload(0x40)\n      dup1\n      swap2\n      sub\n      swap1\n      revert\n    tag_40:\n        /* \"contracts/wallet.sol\":1111:1117  amount */\n      dup2\n        /* \"contracts/wallet.sol\":1089:1096  balance */\n      0x01\n        /* \"contracts/wallet.sol\":1089:1108  balance[msg.sender] */\n      0x00\n        /* \"contracts/wallet.sol\":1097:1107  msg.sender */\n      caller\n        /* \"contracts/wallet.sol\":1089:1108  balance[msg.sender] */\n      0xffffffffffffffffffffffffffffffffffffffff\n      and\n      0xffffffffffffffffffffffffffffffffffffffff\n      and\n      dup2\n      mstore\n      0x20\n      add\n      swap1\n      dup2\n      mstore\n      0x20\n      add\n      0x00\n      keccak256\n      0x00\n        /* \"contracts/wallet.sol\":1089:1117  balance[msg.sender] -=amount */\n      dup3\n      dup3\n      sload\n      tag_42\n      swap2\n      swap1\n      tag_36\n      jump\t// in\n    tag_42:\n      swap3\n      pop\n      pop\n      dup2\n      swap1\n      sstore\n      pop\n        /* \"contracts/wallet.sol\":1128:1137  bool sent */\n      0x00\n        /* \"contracts/wallet.sol\":1147:1157  msg.sender */\n      caller\n        /* \"contracts/wallet.sol\":1139:1163  payable(msg.sender).send */\n      0xffffffffffffffffffffffffffffffffffffffff\n      and\n        /* \"contracts/wallet.sol\":1139:1171  payable(msg.sender).send(amount) */\n      0x08fc\n        /* \"contracts/wallet.sol\":1164:1170  amount */\n      dup5\n        /* \"contracts/wallet.sol\":1139:1171  payable(msg.sender).send(amount) */\n      swap1\n      dup2\n      iszero\n      mul\n      swap1\n      mload(0x40)\n      0x00\n      mload(0x40)\n      dup1\n      dup4\n      sub\n      dup2\n      dup6\n      dup9\n      dup9\n      call\n      swap4\n      pop\n      pop\n      pop\n      pop\n        /* \"contracts/wallet.sol\":1128:1171  bool sent =payable(msg.sender).send(amount) */\n      swap1\n      pop\n        /* \"contracts/wallet.sol\":1196:1206  msg.sender */\n      caller\n        /* \"contracts/wallet.sol\":1187:1215  withdraw(msg.sender, amount) */\n      0xffffffffffffffffffffffffffffffffffffffff\n      and\n      0xf3fef3a3f44f9c277339b67d54f015748bd8d6b77a985b0ab6e71126b018c34a\n        /* \"contracts/wallet.sol\":1208:1214  amount */\n      dup5\n        /* \"contracts/wallet.sol\":1187:1215  withdraw(msg.sender, amount) */\n      mload(0x40)\n      tag_44\n      swap2\n      swap1\n      tag_26\n      jump\t// in\n    tag_44:\n      mload(0x40)\n      dup1\n      swap2\n      sub\n      swap1\n      log2\n        /* \"contracts/wallet.sol\":1233:1237  sent */\n      dup1\n        /* \"contracts/wallet.sol\":1226:1237  return sent */\n      swap2\n      pop\n      pop\n        /* \"contracts/wallet.sol\":943:1245  function withdraw_balance (uint256 amount) public returns (bool) {... */\n      swap2\n      swap1\n      pop\n      jump\t// out\n        /* \"contracts/wallet.sol\":405:606  function deposit() public payable {... */\n    tag_21:\n        /* \"contracts/wallet.sol\":468:469  0 */\n      0x00\n        /* \"contracts/wallet.sol\":458:467  msg.value */\n      callvalue\n        /* \"contracts/wallet.sol\":458:469  msg.value>0 */\n      gt\n        /* \"contracts/wallet.sol\":450:509  require(msg.value>0 , \"Amout should be greater thann zero\") */\n      tag_46\n      jumpi\n      mload(0x40)\n      0x08c379a000000000000000000000000000000000000000000000000000000000\n      dup2\n      mstore\n      0x04\n      add\n      tag_47\n      swap1\n      tag_48\n      jump\t// in\n    tag_47:\n      mload(0x40)\n      dup1\n      swap2\n      sub\n      swap1\n      revert\n    tag_46:\n        /* \"contracts/wallet.sol\":543:552  msg.value */\n      callvalue\n        /* \"contracts/wallet.sol\":520:527  balance */\n      0x01\n        /* \"contracts/wallet.sol\":520:539  balance[msg.sender] */\n      0x00\n        /* \"contracts/wallet.sol\":528:538  msg.sender */\n      caller\n        /* \"contracts/wallet.sol\":520:539  balance[msg.sender] */\n      0xffffffffffffffffffffffffffffffffffffffff\n      and\n      0xffffffffffffffffffffffffffffffffffffffff\n      and\n      dup2\n      mstore\n      0x20\n      add\n      swap1\n      dup2\n      mstore\n      0x20\n      add\n      0x00\n      keccak256\n      0x00\n        /* \"contracts/wallet.sol\":520:552  balance[msg.sender] += msg.value */\n      dup3\n      dup3\n      sload\n      tag_49\n      swap2\n      swap1\n      tag_50\n      jump\t// in\n    tag_49:\n      swap3\n      pop\n      pop\n      dup2\n      swap1\n      sstore\n      pop\n        /* \"contracts/wallet.sol\":576:586  msg.sender */\n      caller\n        /* \"contracts/wallet.sol\":568:598  Deposit(msg.sender, msg.value) */\n      0xffffffffffffffffffffffffffffffffffffffff\n      and\n      0xe1fffcc4923d04b559f4d29a8bfc6cda04eb5b0d3c460751c2402c5c5cc9109c\n        /* \"contracts/wallet.sol\":588:597  msg.value */\n      callvalue\n        /* \"contracts/wallet.sol\":568:598  Deposit(msg.sender, msg.value) */\n      mload(0x40)\n      tag_51\n      swap2\n      swap1\n      tag_26\n      jump\t// in\n    tag_51:\n      mload(0x40)\n      dup1\n      swap2\n      sub\n      swap1\n      log2\n        /* \"contracts/wallet.sol\":405:606  function deposit() public payable {... */\n      jump\t// out\n        /* \"contracts/wallet.sol\":738:937  function total_balance() public view returns(uint) {... */\n    tag_24:\n        /* \"contracts/wallet.sol\":783:787  uint */\n      0x00\n        /* \"contracts/wallet.sol\":815:825  msg.sender */\n      caller\n        /* \"contracts/wallet.sol\":808:825  owner==msg.sender */\n      0xffffffffffffffffffffffffffffffffffffffff\n      and\n        /* \"contracts/wallet.sol\":808:813  owner */\n      0x00\n      dup1\n      sload\n      swap1\n      0x0100\n      exp\n      swap1\n      div\n      0xffffffffffffffffffffffffffffffffffffffff\n      and\n        /* \"contracts/wallet.sol\":808:825  owner==msg.sender */\n      0xffffffffffffffffffffffffffffffffffffffff\n      and\n      eq\n        /* \"contracts/wallet.sol\":800:865  require(owner==msg.sender , \"Only Owner Can Check Total Balance\") */\n      tag_53\n      jumpi\n      mload(0x40)\n      0x08c379a000000000000000000000000000000000000000000000000000000000\n      dup2\n      mstore\n      0x04\n      add\n      tag_54\n      swap1\n      tag_55\n      jump\t// in\n    tag_54:\n      mload(0x40)\n      dup1\n      swap2\n      sub\n      swap1\n      revert\n    tag_53:\n        /* \"contracts/wallet.sol\":876:884  uint bal */\n      0x00\n        /* \"contracts/wallet.sol\":887:908  address(this).balance */\n      selfbalance\n        /* \"contracts/wallet.sol\":876:908  uint bal = address(this).balance */\n      swap1\n      pop\n        /* \"contracts/wallet.sol\":926:929  bal */\n      dup1\n        /* \"contracts/wallet.sol\":919:929  return bal */\n      swap2\n      pop\n      pop\n        /* \"contracts/wallet.sol\":738:937  function total_balance() public view returns(uint) {... */\n      swap1\n      jump\t// out\n        /* \"contracts/wallet.sol\":614:732  function my_balanca() public view returns(uint) {... */\n    tag_29:\n        /* \"contracts/wallet.sol\":656:660  uint */\n      0x00\n        /* \"contracts/wallet.sol\":673:681  uint bal */\n      dup1\n        /* \"contracts/wallet.sol\":684:691  balance */\n      0x01\n        /* \"contracts/wallet.sol\":684:703  balance[msg.sender] */\n      0x00\n        /* \"contracts/wallet.sol\":692:702  msg.sender */\n      caller\n        /* \"contracts/wallet.sol\":684:703  balance[msg.sender] */\n      0xffffffffffffffffffffffffffffffffffffffff\n      and\n      0xffffffffffffffffffffffffffffffffffffffff\n      and\n      dup2\n      mstore\n      0x20\n      add\n      swap1\n      dup2\n      mstore\n      0x20\n      add\n      0x00\n      keccak256\n      sload\n        /* \"contracts/wallet.sol\":673:703  uint bal = balance[msg.sender] */\n      swap1\n      pop\n        /* \"contracts/wallet.sol\":721:724  bal */\n      dup1\n        /* \"contracts/wallet.sol\":714:724  return bal */\n      swap2\n      pop\n      pop\n        /* \"contracts/wallet.sol\":614:732  function my_balanca() public view returns(uint) {... */\n      swap1\n      jump\t// out\n        /* \"#utility.yul\":88:205   */\n    tag_58:\n        /* \"#utility.yul\":197:198   */\n      0x00\n        /* \"#utility.yul\":194:195   */\n      dup1\n        /* \"#utility.yul\":187:199   */\n      revert\n        /* \"#utility.yul\":334:460   */\n    tag_60:\n        /* \"#utility.yul\":371:378   */\n      0x00\n        /* \"#utility.yul\":411:453   */\n      0xffffffffffffffffffffffffffffffffffffffff\n        /* \"#utility.yul\":404:409   */\n      dup3\n        /* \"#utility.yul\":400:454   */\n      and\n        /* \"#utility.yul\":389:454   */\n      swap1\n      pop\n        /* \"#utility.yul\":334:460   */\n      swap2\n      swap1\n      pop\n      jump\t// out\n        /* \"#utility.yul\":466:570   */\n    tag_61:\n        /* \"#utility.yul\":511:518   */\n      0x00\n        /* \"#utility.yul\":540:564   */\n      tag_84\n        /* \"#utility.yul\":558:563   */\n      dup3\n        /* \"#utility.yul\":540:564   */\n      tag_60\n      jump\t// in\n    tag_84:\n        /* \"#utility.yul\":529:564   */\n      swap1\n      pop\n        /* \"#utility.yul\":466:570   */\n      swap2\n      swap1\n      pop\n      jump\t// out\n        /* \"#utility.yul\":576:714   */\n    tag_62:\n        /* \"#utility.yul\":657:689   */\n      tag_86\n        /* \"#utility.yul\":683:688   */\n      dup2\n        /* \"#utility.yul\":657:689   */\n      tag_61\n      jump\t// in\n    tag_86:\n        /* \"#utility.yul\":650:655   */\n      dup2\n        /* \"#utility.yul\":647:690   */\n      eq\n        /* \"#utility.yul\":637:708   */\n      tag_87\n      jumpi\n        /* \"#utility.yul\":704:705   */\n      0x00\n        /* \"#utility.yul\":701:702   */\n      dup1\n        /* \"#utility.yul\":694:706   */\n      revert\n        /* \"#utility.yul\":637:708   */\n    tag_87:\n        /* \"#utility.yul\":576:714   */\n      pop\n      jump\t// out\n        /* \"#utility.yul\":720:875   */\n    tag_63:\n        /* \"#utility.yul\":774:779   */\n      0x00\n        /* \"#utility.yul\":812:818   */\n      dup2\n        /* \"#utility.yul\":799:819   */\n      calldataload\n        /* \"#utility.yul\":790:819   */\n      swap1\n      pop\n        /* \"#utility.yul\":828:869   */\n      tag_89\n        /* \"#utility.yul\":863:868   */\n      dup2\n        /* \"#utility.yul\":828:869   */\n      tag_62\n      jump\t// in\n    tag_89:\n        /* \"#utility.yul\":720:875   */\n      swap3\n      swap2\n      pop\n      pop\n      jump\t// out\n        /* \"#utility.yul\":881:958   */\n    tag_64:\n        /* \"#utility.yul\":918:925   */\n      0x00\n        /* \"#utility.yul\":947:952   */\n      dup2\n        /* \"#utility.yul\":936:952   */\n      swap1\n      pop\n        /* \"#utility.yul\":881:958   */\n      swap2\n      swap1\n      pop\n      jump\t// out\n        /* \"#utility.yul\":964:1086   */\n    tag_65:\n        /* \"#utility.yul\":1037:1061   */\n      tag_92\n        /* \"#utility.yul\":1055:1060   */\n      dup2\n        /* \"#utility.yul\":1037:1061   */\n      tag_64\n      jump\t// in\n    tag_92:\n        /* \"#utility.yul\":1030:1035   */\n      dup2\n        /* \"#utility.yul\":1027:1062   */\n      eq\n        /* \"#utility.yul\":1017:1080   */\n      tag_93\n      jumpi\n        /* \"#utility.yul\":1076:1077   */\n      0x00\n        /* \"#utility.yul\":1073:1074   */\n      dup1\n        /* \"#utility.yul\":1066:1078   */\n      revert\n        /* \"#utility.yul\":1017:1080   */\n    tag_93:\n        /* \"#utility.yul\":964:1086   */\n      pop\n      jump\t// out\n        /* \"#utility.yul\":1092:1231   */\n    tag_66:\n        /* \"#utility.yul\":1138:1143   */\n      0x00\n        /* \"#utility.yul\":1176:1182   */\n      dup2\n        /* \"#utility.yul\":1163:1183   */\n      calldataload\n        /* \"#utility.yul\":1154:1183   */\n      swap1\n      pop\n        /* \"#utility.yul\":1192:1225   */\n      tag_95\n        /* \"#utility.yul\":1219:1224   */\n      dup2\n        /* \"#utility.yul\":1192:1225   */\n      tag_65\n      jump\t// in\n    tag_95:\n        /* \"#utility.yul\":1092:1231   */\n      swap3\n      swap2\n      pop\n      pop\n      jump\t// out\n        /* \"#utility.yul\":1237:1727   */\n    tag_10:\n        /* \"#utility.yul\":1313:1319   */\n      0x00\n        /* \"#utility.yul\":1321:1327   */\n      dup1\n        /* \"#utility.yul\":1370:1372   */\n      0x40\n        /* \"#utility.yul\":1358:1367   */\n      dup4\n        /* \"#utility.yul\":1349:1356   */\n      dup6\n        /* \"#utility.yul\":1345:1368   */\n      sub\n        /* \"#utility.yul\":1341:1373   */\n      slt\n        /* \"#utility.yul\":1338:1457   */\n      iszero\n      tag_97\n      jumpi\n        /* \"#utility.yul\":1376:1455   */\n      tag_98\n      tag_58\n      jump\t// in\n    tag_98:\n        /* \"#utility.yul\":1338:1457   */\n    tag_97:\n        /* \"#utility.yul\":1496:1497   */\n      0x00\n        /* \"#utility.yul\":1521:1582   */\n      tag_99\n        /* \"#utility.yul\":1574:1581   */\n      dup6\n        /* \"#utility.yul\":1565:1571   */\n      dup3\n        /* \"#utility.yul\":1554:1563   */\n      dup7\n        /* \"#utility.yul\":1550:1572   */\n      add\n        /* \"#utility.yul\":1521:1582   */\n      tag_63\n      jump\t// in\n    tag_99:\n        /* \"#utility.yul\":1511:1582   */\n      swap3\n      pop\n        /* \"#utility.yul\":1467:1592   */\n      pop\n        /* \"#utility.yul\":1631:1633   */\n      0x20\n        /* \"#utility.yul\":1657:1710   */\n      tag_100\n        /* \"#utility.yul\":1702:1709   */\n      dup6\n        /* \"#utility.yul\":1693:1699   */\n      dup3\n        /* \"#utility.yul\":1682:1691   */\n      dup7\n        /* \"#utility.yul\":1678:1700   */\n      add\n        /* \"#utility.yul\":1657:1710   */\n      tag_66\n      jump\t// in\n    tag_100:\n        /* \"#utility.yul\":1647:1710   */\n      swap2\n      pop\n        /* \"#utility.yul\":1602:1720   */\n      pop\n        /* \"#utility.yul\":1237:1727   */\n      swap3\n      pop\n      swap3\n      swap1\n      pop\n      jump\t// out\n        /* \"#utility.yul\":1733:1823   */\n    tag_67:\n        /* \"#utility.yul\":1767:1774   */\n      0x00\n        /* \"#utility.yul\":1810:1815   */\n      dup2\n        /* \"#utility.yul\":1803:1816   */\n      iszero\n        /* \"#utility.yul\":1796:1817   */\n      iszero\n        /* \"#utility.yul\":1785:1817   */\n      swap1\n      pop\n        /* \"#utility.yul\":1733:1823   */\n      swap2\n      swap1\n      pop\n      jump\t// out\n        /* \"#utility.yul\":1829:1938   */\n    tag_68:\n        /* \"#utility.yul\":1910:1931   */\n      tag_103\n        /* \"#utility.yul\":1925:1930   */\n      dup2\n        /* \"#utility.yul\":1910:1931   */\n      tag_67\n      jump\t// in\n    tag_103:\n        /* \"#utility.yul\":1905:1908   */\n      dup3\n        /* \"#utility.yul\":1898:1932   */\n      mstore\n        /* \"#utility.yul\":1829:1938   */\n      pop\n      pop\n      jump\t// out\n        /* \"#utility.yul\":1944:2154   */\n    tag_13:\n        /* \"#utility.yul\":2031:2035   */\n      0x00\n        /* \"#utility.yul\":2069:2071   */\n      0x20\n        /* \"#utility.yul\":2058:2067   */\n      dup3\n        /* \"#utility.yul\":2054:2072   */\n      add\n        /* \"#utility.yul\":2046:2072   */\n      swap1\n      pop\n        /* \"#utility.yul\":2082:2147   */\n      tag_105\n        /* \"#utility.yul\":2144:2145   */\n      0x00\n        /* \"#utility.yul\":2133:2142   */\n      dup4\n        /* \"#utility.yul\":2129:2146   */\n      add\n        /* \"#utility.yul\":2120:2126   */\n      dup5\n        /* \"#utility.yul\":2082:2147   */\n      tag_68\n      jump\t// in\n    tag_105:\n        /* \"#utility.yul\":1944:2154   */\n      swap3\n      swap2\n      pop\n      pop\n      jump\t// out\n        /* \"#utility.yul\":2160:2489   */\n    tag_17:\n        /* \"#utility.yul\":2219:2225   */\n      0x00\n        /* \"#utility.yul\":2268:2270   */\n      0x20\n        /* \"#utility.yul\":2256:2265   */\n      dup3\n        /* \"#utility.yul\":2247:2254   */\n      dup5\n        /* \"#utility.yul\":2243:2266   */\n      sub\n        /* \"#utility.yul\":2239:2271   */\n      slt\n        /* \"#utility.yul\":2236:2355   */\n      iszero\n      tag_107\n      jumpi\n        /* \"#utility.yul\":2274:2353   */\n      tag_108\n      tag_58\n      jump\t// in\n    tag_108:\n        /* \"#utility.yul\":2236:2355   */\n    tag_107:\n        /* \"#utility.yul\":2394:2395   */\n      0x00\n        /* \"#utility.yul\":2419:2472   */\n      tag_109\n        /* \"#utility.yul\":2464:2471   */\n      dup5\n        /* \"#utility.yul\":2455:2461   */\n      dup3\n        /* \"#utility.yul\":2444:2453   */\n      dup6\n        /* \"#utility.yul\":2440:2462   */\n      add\n        /* \"#utility.yul\":2419:2472   */\n      tag_66\n      jump\t// in\n    tag_109:\n        /* \"#utility.yul\":2409:2472   */\n      swap2\n      pop\n        /* \"#utility.yul\":2365:2482   */\n      pop\n        /* \"#utility.yul\":2160:2489   */\n      swap3\n      swap2\n      pop\n      pop\n      jump\t// out\n        /* \"#utility.yul\":2495:2613   */\n    tag_69:\n        /* \"#utility.yul\":2582:2606   */\n      tag_111\n        /* \"#utility.yul\":2600:2605   */\n      dup2\n        /* \"#utility.yul\":2582:2606   */\n      tag_64\n      jump\t// in\n    tag_111:\n        /* \"#utility.yul\":2577:2580   */\n      dup3\n        /* \"#utility.yul\":2570:2607   */\n      mstore\n        /* \"#utility.yul\":2495:2613   */\n      pop\n      pop\n      jump\t// out\n        /* \"#utility.yul\":2619:2841   */\n    tag_26:\n        /* \"#utility.yul\":2712:2716   */\n      0x00\n        /* \"#utility.yul\":2750:2752   */\n      0x20\n        /* \"#utility.yul\":2739:2748   */\n      dup3\n        /* \"#utility.yul\":2735:2753   */\n      add\n        /* \"#utility.yul\":2727:2753   */\n      swap1\n      pop\n        /* \"#utility.yul\":2763:2834   */\n      tag_113\n        /* \"#utility.yul\":2831:2832   */\n      0x00\n        /* \"#utility.yul\":2820:2829   */\n      dup4\n        /* \"#utility.yul\":2816:2833   */\n      add\n        /* \"#utility.yul\":2807:2813   */\n      dup5\n        /* \"#utility.yul\":2763:2834   */\n      tag_69\n      jump\t// in\n    tag_113:\n        /* \"#utility.yul\":2619:2841   */\n      swap3\n      swap2\n      pop\n      pop\n      jump\t// out\n        /* \"#utility.yul\":2847:3016   */\n    tag_70:\n        /* \"#utility.yul\":2931:2942   */\n      0x00\n        /* \"#utility.yul\":2965:2971   */\n      dup3\n        /* \"#utility.yul\":2960:2963   */\n      dup3\n        /* \"#utility.yul\":2953:2972   */\n      mstore\n        /* \"#utility.yul\":3005:3009   */\n      0x20\n        /* \"#utility.yul\":3000:3003   */\n      dup3\n        /* \"#utility.yul\":2996:3010   */\n      add\n        /* \"#utility.yul\":2981:3010   */\n      swap1\n      pop\n        /* \"#utility.yul\":2847:3016   */\n      swap3\n      swap2\n      pop\n      pop\n      jump\t// out\n        /* \"#utility.yul\":3022:3189   */\n    tag_71:\n        /* \"#utility.yul\":3162:3181   */\n      0x496e73756666656369656e742046756e64000000000000000000000000000000\n        /* \"#utility.yul\":3158:3159   */\n      0x00\n        /* \"#utility.yul\":3150:3156   */\n      dup3\n        /* \"#utility.yul\":3146:3160   */\n      add\n        /* \"#utility.yul\":3139:3182   */\n      mstore\n        /* \"#utility.yul\":3022:3189   */\n      pop\n      jump\t// out\n        /* \"#utility.yul\":3195:3561   */\n    tag_72:\n        /* \"#utility.yul\":3337:3340   */\n      0x00\n        /* \"#utility.yul\":3358:3425   */\n      tag_117\n        /* \"#utility.yul\":3422:3424   */\n      0x11\n        /* \"#utility.yul\":3417:3420   */\n      dup4\n        /* \"#utility.yul\":3358:3425   */\n      tag_70\n      jump\t// in\n    tag_117:\n        /* \"#utility.yul\":3351:3425   */\n      swap2\n      pop\n        /* \"#utility.yul\":3434:3527   */\n      tag_118\n        /* \"#utility.yul\":3523:3526   */\n      dup3\n        /* \"#utility.yul\":3434:3527   */\n      tag_71\n      jump\t// in\n    tag_118:\n        /* \"#utility.yul\":3552:3554   */\n      0x20\n        /* \"#utility.yul\":3547:3550   */\n      dup3\n        /* \"#utility.yul\":3543:3555   */\n      add\n        /* \"#utility.yul\":3536:3555   */\n      swap1\n      pop\n        /* \"#utility.yul\":3195:3561   */\n      swap2\n      swap1\n      pop\n      jump\t// out\n        /* \"#utility.yul\":3567:3986   */\n    tag_34:\n        /* \"#utility.yul\":3733:3737   */\n      0x00\n        /* \"#utility.yul\":3771:3773   */\n      0x20\n        /* \"#utility.yul\":3760:3769   */\n      dup3\n        /* \"#utility.yul\":3756:3774   */\n      add\n        /* \"#utility.yul\":3748:3774   */\n      swap1\n      pop\n        /* \"#utility.yul\":3820:3829   */\n      dup2\n        /* \"#utility.yul\":3814:3818   */\n      dup2\n        /* \"#utility.yul\":3810:3830   */\n      sub\n        /* \"#utility.yul\":3806:3807   */\n      0x00\n        /* \"#utility.yul\":3795:3804   */\n      dup4\n        /* \"#utility.yul\":3791:3808   */\n      add\n        /* \"#utility.yul\":3784:3831   */\n      mstore\n        /* \"#utility.yul\":3848:3979   */\n      tag_120\n        /* \"#utility.yul\":3974:3978   */\n      dup2\n        /* \"#utility.yul\":3848:3979   */\n      tag_72\n      jump\t// in\n    tag_120:\n        /* \"#utility.yul\":3840:3979   */\n      swap1\n      pop\n        /* \"#utility.yul\":3567:3986   */\n      swap2\n      swap1\n      pop\n      jump\t// out\n        /* \"#utility.yul\":3992:4172   */\n    tag_73:\n        /* \"#utility.yul\":4040:4117   */\n      0x4e487b7100000000000000000000000000000000000000000000000000000000\n        /* \"#utility.yul\":4037:4038   */\n      0x00\n        /* \"#utility.yul\":4030:4118   */\n      mstore\n        /* \"#utility.yul\":4137:4141   */\n      0x11\n        /* \"#utility.yul\":4134:4135   */\n      0x04\n        /* \"#utility.yul\":4127:4142   */\n      mstore\n        /* \"#utility.yul\":4161:4165   */\n      0x24\n        /* \"#utility.yul\":4158:4159   */\n      0x00\n        /* \"#utility.yul\":4151:4166   */\n      revert\n        /* \"#utility.yul\":4178:4369   */\n    tag_36:\n        /* \"#utility.yul\":4218:4222   */\n      0x00\n        /* \"#utility.yul\":4238:4258   */\n      tag_123\n        /* \"#utility.yul\":4256:4257   */\n      dup3\n        /* \"#utility.yul\":4238:4258   */\n      tag_64\n      jump\t// in\n    tag_123:\n        /* \"#utility.yul\":4233:4258   */\n      swap2\n      pop\n        /* \"#utility.yul\":4272:4292   */\n      tag_124\n        /* \"#utility.yul\":4290:4291   */\n      dup4\n        /* \"#utility.yul\":4272:4292   */\n      tag_64\n      jump\t// in\n    tag_124:\n        /* \"#utility.yul\":4267:4292   */\n      swap3\n      pop\n        /* \"#utility.yul\":4311:4312   */\n      dup3\n        /* \"#utility.yul\":4308:4309   */\n      dup3\n        /* \"#utility.yul\":4305:4313   */\n      lt\n        /* \"#utility.yul\":4302:4336   */\n      iszero\n      tag_125\n      jumpi\n        /* \"#utility.yul\":4316:4334   */\n      tag_126\n      tag_73\n      jump\t// in\n    tag_126:\n        /* \"#utility.yul\":4302:4336   */\n    tag_125:\n        /* \"#utility.yul\":4361:4362   */\n      dup3\n        /* \"#utility.yul\":4358:4359   */\n      dup3\n        /* \"#utility.yul\":4354:4363   */\n      sub\n        /* \"#utility.yul\":4346:4363   */\n      swap1\n      pop\n        /* \"#utility.yul\":4178:4369   */\n      swap3\n      swap2\n      pop\n      pop\n      jump\t// out\n        /* \"#utility.yul\":4375:4596   */\n    tag_74:\n        /* \"#utility.yul\":4515:4549   */\n      0x416d6f75742073686f756c642062652067726561746572207468616e6e207a65\n        /* \"#utility.yul\":4511:4512   */\n      0x00\n        /* \"#utility.yul\":4503:4509   */\n      dup3\n        /* \"#utility.yul\":4499:4513   */\n      add\n        /* \"#utility.yul\":4492:4550   */\n      mstore\n        /* \"#utility.yul\":4584:4588   */\n      0x726f000000000000000000000000000000000000000000000000000000000000\n        /* \"#utility.yul\":4579:4581   */\n      0x20\n        /* \"#utility.yul\":4571:4577   */\n      dup3\n        /* \"#utility.yul\":4567:4582   */\n      add\n        /* \"#utility.yul\":4560:4589   */\n      mstore\n        /* \"#utility.yul\":4375:4596   */\n      pop\n      jump\t// out\n        /* \"#utility.yul\":4602:4968   */\n    tag_75:\n        /* \"#utility.yul\":4744:4747   */\n      0x00\n        /* \"#utility.yul\":4765:4832   */\n      tag_129\n        /* \"#utility.yul\":4829:4831   */\n      0x22\n        /* \"#utility.yul\":4824:4827   */\n      dup4\n        /* \"#utility.yul\":4765:4832   */\n      tag_70\n      jump\t// in\n    tag_129:\n        /* \"#utility.yul\":4758:4832   */\n      swap2\n      pop\n        /* \"#utility.yul\":4841:4934   */\n      tag_130\n        /* \"#utility.yul\":4930:4933   */\n      dup3\n        /* \"#utility.yul\":4841:4934   */\n      tag_74\n      jump\t// in\n    tag_130:\n        /* \"#utility.yul\":4959:4961   */\n      0x40\n        /* \"#utility.yul\":4954:4957   */\n      dup3\n        /* \"#utility.yul\":4950:4962   */\n      add\n        /* \"#utility.yul\":4943:4962   */\n      swap1\n      pop\n        /* \"#utility.yul\":4602:4968   */\n      swap2\n      swap1\n      pop\n      jump\t// out\n        /* \"#utility.yul\":4974:5393   */\n    tag_48:\n        /* \"#utility.yul\":5140:5144   */\n      0x00\n        /* \"#utility.yul\":5178:5180   */\n      0x20\n        /* \"#utility.yul\":5167:5176   */\n      dup3\n        /* \"#utility.yul\":5163:5181   */\n      add\n        /* \"#utility.yul\":5155:5181   */\n      swap1\n      pop\n        /* \"#utility.yul\":5227:5236   */\n      dup2\n        /* \"#utility.yul\":5221:5225   */\n      dup2\n        /* \"#utility.yul\":5217:5237   */\n      sub\n        /* \"#utility.yul\":5213:5214   */\n      0x00\n        /* \"#utility.yul\":5202:5211   */\n      dup4\n        /* \"#utility.yul\":5198:5215   */\n      add\n        /* \"#utility.yul\":5191:5238   */\n      mstore\n        /* \"#utility.yul\":5255:5386   */\n      tag_132\n        /* \"#utility.yul\":5381:5385   */\n      dup2\n        /* \"#utility.yul\":5255:5386   */\n      tag_75\n      jump\t// in\n    tag_132:\n        /* \"#utility.yul\":5247:5386   */\n      swap1\n      pop\n        /* \"#utility.yul\":4974:5393   */\n      swap2\n      swap1\n      pop\n      jump\t// out\n        /* \"#utility.yul\":5399:5704   */\n    tag_50:\n        /* \"#utility.yul\":5439:5442   */\n      0x00\n        /* \"#utility.yul\":5458:5478   */\n      tag_134\n        /* \"#utility.yul\":5476:5477   */\n      dup3\n        /* \"#utility.yul\":5458:5478   */\n      tag_64\n      jump\t// in\n    tag_134:\n        /* \"#utility.yul\":5453:5478   */\n      swap2\n      pop\n        /* \"#utility.yul\":5492:5512   */\n      tag_135\n        /* \"#utility.yul\":5510:5511   */\n      dup4\n        /* \"#utility.yul\":5492:5512   */\n      tag_64\n      jump\t// in\n    tag_135:\n        /* \"#utility.yul\":5487:5512   */\n      swap3\n      pop\n        /* \"#utility.yul\":5646:5647   */\n      dup3\n        /* \"#utility.yul\":5578:5644   */\n      0xffffffffffffffffffffffffffffffffffffffffffffffffffffffffffffffff\n        /* \"#utility.yul\":5574:5648   */\n      sub\n        /* \"#utility.yul\":5571:5572   */\n      dup3\n        /* \"#utility.yul\":5568:5649   */\n      gt\n        /* \"#utility.yul\":5565:5672   */\n      iszero\n      tag_136\n      jumpi\n        /* \"#utility.yul\":5652:5670   */\n      tag_137\n      tag_73\n      jump\t// in\n    tag_137:\n        /* \"#utility.yul\":5565:5672   */\n    tag_136:\n        /* \"#utility.yul\":5696:5697   */\n      dup3\n        /* \"#utility.yul\":5693:5694   */\n      dup3\n        /* \"#utility.yul\":5689:5698   */\n      add\n        /* \"#utility.yul\":5682:5698   */\n      swap1\n      pop\n        /* \"#utility.yul\":5399:5704   */\n      swap3\n      swap2\n      pop\n      pop\n      jump\t// out\n        /* \"#utility.yul\":5710:5931   */\n    tag_76:\n        /* \"#utility.yul\":5850:5884   */\n      0x4f6e6c79204f776e65722043616e20436865636b20546f74616c2042616c616e\n        /* \"#utility.yul\":5846:5847   */\n      0x00\n        /* \"#utility.yul\":5838:5844   */\n      dup3\n        /* \"#utility.yul\":5834:5848   */\n      add\n        /* \"#utility.yul\":5827:5885   */\n      mstore\n        /* \"#utility.yul\":5919:5923   */\n      0x6365000000000000000000000000000000000000000000000000000000000000\n        /* \"#utility.yul\":5914:5916   */\n      0x20\n        /* \"#utility.yul\":5906:5912   */\n      dup3\n        /* \"#utility.yul\":5902:5917   */\n      add\n        /* \"#utility.yul\":5895:5924   */\n      mstore\n        /* \"#utility.yul\":5710:5931   */\n      pop\n      jump\t// out\n        /* \"#utility.yul\":5937:6303   */\n    tag_77:\n        /* \"#utility.yul\":6079:6082   */\n      0x00\n        /* \"#utility.yul\":6100:6167   */\n      tag_140\n        /* \"#utility.yul\":6164:6166   */\n      0x22\n        /* \"#utility.yul\":6159:6162   */\n      dup4\n        /* \"#utility.yul\":6100:6167   */\n      tag_70\n      jump\t// in\n    tag_140:\n        /* \"#utility.yul\":6093:6167   */\n      swap2\n      pop\n        /* \"#utility.yul\":6176:6269   */\n      tag_141\n        /* \"#utility.yul\":6265:6268   */\n      dup3\n        /* \"#utility.yul\":6176:6269   */\n      tag_76\n      jump\t// in\n    tag_141:\n        /* \"#utility.yul\":6294:6296   */\n      0x40\n        /* \"#utility.yul\":6289:6292   */\n      dup3\n        /* \"#utility.yul\":6285:6297   */\n      add\n        /* \"#utility.yul\":6278:6297   */\n      swap1\n      pop\n        /* \"#utility.yul\":5937:6303   */\n      swap2\n      swap1\n      pop\n      jump\t// out\n        /* \"#utility.yul\":6309:6728   */\n    tag_55:\n        /* \"#utility.yul\":6475:6479   */\n      0x00\n        /* \"#utility.yul\":6513:6515   */\n      0x20\n        /* \"#utility.yul\":6502:6511   */\n      dup3\n        /* \"#utility.yul\":6498:6516   */\n      add\n        /* \"#utility.yul\":6490:6516   */\n      swap1\n      pop\n        /* \"#utility.yul\":6562:6571   */\n      dup2\n        /* \"#utility.yul\":6556:6560   */\n      dup2\n        /* \"#utility.yul\":6552:6572   */\n      sub\n        /* \"#utility.yul\":6548:6549   */\n      0x00\n        /* \"#utility.yul\":6537:6546   */\n      dup4\n        /* \"#utility.yul\":6533:6550   */\n      add\n        /* \"#utility.yul\":6526:6573   */\n      mstore\n        /* \"#utility.yul\":6590:6721   */\n      tag_143\n        /* \"#utility.yul\":6716:6720   */\n      dup2\n        /* \"#utility.yul\":6590:6721   */\n      tag_77\n      jump\t// in\n    tag_143:\n        /* \"#utility.yul\":6582:6721   */\n      swap1\n      pop\n        /* \"#utility.yul\":6309:6728   */\n      swap2\n      swap1\n      pop\n      jump\t// out\n\n    auxdata: 0xa26469706673582212200877ffcd64ce60f15613cd1a62577f9613bb1c10c934f205c2e9014539636a3b64736f6c634300080d0033\n}\n",
				"bytecode": {
					"linkReferences": {},
					"object": "608060405234801561001057600080fd5b50336000806101000a81548173ffffffffffffffffffffffffffffffffffffffff021916908373ffffffffffffffffffffffffffffffffffffffff1602179055506109c5806100606000396000f3fe60806040526004361061004a5760003560e01c806312b333811461004f5780632565b1b81461008c578063d0e30db0146100c9578063d2ff791f146100d3578063d8180497146100fe575b600080fd5b34801561005b57600080fd5b5061007660048036038101906100719190610668565b610129565b60405161008391906106c3565b60405180910390f35b34801561009857600080fd5b506100b360048036038101906100ae91906106de565b610294565b6040516100c091906106c3565b60405180910390f35b6100d16103fe565b005b3480156100df57600080fd5b506100e86104e7565b6040516100f5919061071a565b60405180910390f35b34801561010a57600080fd5b50610113610583565b604051610120919061071a565b60405180910390f35b6000600160003373ffffffffffffffffffffffffffffffffffffffff1673ffffffffffffffffffffffffffffffffffffffff168152602001908152602001600020548211156101ad576040517f08c379a00000000000000000000000000000000000000000000000000000000081526004016101a490610792565b60405180910390fd5b81600160003373ffffffffffffffffffffffffffffffffffffffff1673ffffffffffffffffffffffffffffffffffffffff16815260200190815260200160002060008282546101fc91906107e1565b9250508190555060008373ffffffffffffffffffffffffffffffffffffffff166108fc849081150290604051600060405180830381858888f1935050505090508373ffffffffffffffffffffffffffffffffffffffff167f69ca02dd4edd7bf0a4abb9ed3b7af3f14778db5d61921c7dc7cd545266326de284604051610282919061071a565b60405180910390a28091505092915050565b6000600160003373ffffffffffffffffffffffffffffffffffffffff1673ffffffffffffffffffffffffffffffffffffffff16815260200190815260200160002054821115610318576040517f08c379a000000000000000000000000000000000000000000000000000000000815260040161030f90610792565b60405180910390fd5b81600160003373ffffffffffffffffffffffffffffffffffffffff1673ffffffffffffffffffffffffffffffffffffffff168152602001908152602001600020600082825461036791906107e1565b9250508190555060003373ffffffffffffffffffffffffffffffffffffffff166108fc849081150290604051600060405180830381858888f1935050505090503373ffffffffffffffffffffffffffffffffffffffff167ff3fef3a3f44f9c277339b67d54f015748bd8d6b77a985b0ab6e71126b018c34a846040516103ed919061071a565b60405180910390a280915050919050565b60003411610441576040517f08c379a000000000000000000000000000000000000000000000000000000000815260040161043890610887565b60405180910390fd5b34600160003373ffffffffffffffffffffffffffffffffffffffff1673ffffffffffffffffffffffffffffffffffffffff168152602001908152602001600020600082825461049091906108a7565b925050819055503373ffffffffffffffffffffffffffffffffffffffff167fe1fffcc4923d04b559f4d29a8bfc6cda04eb5b0d3c460751c2402c5c5cc9109c346040516104dd919061071a565b60405180910390a2565b60003373ffffffffffffffffffffffffffffffffffffffff1660008054906101000a900473ffffffffffffffffffffffffffffffffffffffff1673ffffffffffffffffffffffffffffffffffffffff1614610577576040517f08c379a000000000000000000000000000000000000000000000000000000000815260040161056e9061096f565b60405180910390fd5b60004790508091505090565b600080600160003373ffffffffffffffffffffffffffffffffffffffff1673ffffffffffffffffffffffffffffffffffffffff1681526020019081526020016000205490508091505090565b600080fd5b600073ffffffffffffffffffffffffffffffffffffffff82169050919050565b60006105ff826105d4565b9050919050565b61060f816105f4565b811461061a57600080fd5b50565b60008135905061062c81610606565b92915050565b6000819050919050565b61064581610632565b811461065057600080fd5b50565b6000813590506106628161063c565b92915050565b6000806040838503121561067f5761067e6105cf565b5b600061068d8582860161061d565b925050602061069e85828601610653565b9150509250929050565b60008115159050919050565b6106bd816106a8565b82525050565b60006020820190506106d860008301846106b4565b92915050565b6000602082840312156106f4576106f36105cf565b5b600061070284828501610653565b91505092915050565b61071481610632565b82525050565b600060208201905061072f600083018461070b565b92915050565b600082825260208201905092915050565b7f496e73756666656369656e742046756e64000000000000000000000000000000600082015250565b600061077c601183610735565b915061078782610746565b602082019050919050565b600060208201905081810360008301526107ab8161076f565b9050919050565b7f4e487b7100000000000000000000000000000000000000000000000000000000600052601160045260246000fd5b60006107ec82610632565b91506107f783610632565b92508282101561080a576108096107b2565b5b828203905092915050565b7f416d6f75742073686f756c642062652067726561746572207468616e6e207a6560008201527f726f000000000000000000000000000000000000000000000000000000000000602082015250565b6000610871602283610735565b915061087c82610815565b604082019050919050565b600060208201905081810360008301526108a081610864565b9050919050565b60006108b282610632565b91506108bd83610632565b9250827fffffffffffffffffffffffffffffffffffffffffffffffffffffffffffffffff038211156108f2576108f16107b2565b5b828201905092915050565b7f4f6e6c79204f776e65722043616e20436865636b20546f74616c2042616c616e60008201527f6365000000000000000000000000000000000000000000000000000000000000602082015250565b6000610959602283610735565b9150610964826108fd565b604082019050919050565b600060208201905081810360008301526109888161094c565b905091905056fea26469706673582212200877ffcd64ce60f15613cd1a62577f9613bb1c10c934f205c2e9014539636a3b64736f6c634300080d0033",
					"opcodes": "PUSH1 0x80 PUSH1 0x40 MSTORE CALLVALUE DUP1 ISZERO PUSH2 0x10 JUMPI PUSH1 0x0 DUP1 REVERT JUMPDEST POP CALLER PUSH1 0x0 DUP1 PUSH2 0x100 EXP DUP2 SLOAD DUP2 PUSH20 0xFFFFFFFFFFFFFFFFFFFFFFFFFFFFFFFFFFFFFFFF MUL NOT AND SWAP1 DUP4 PUSH20 0xFFFFFFFFFFFFFFFFFFFFFFFFFFFFFFFFFFFFFFFF AND MUL OR SWAP1 SSTORE POP PUSH2 0x9C5 DUP1 PUSH2 0x60 PUSH1 0x0 CODECOPY PUSH1 0x0 RETURN INVALID PUSH1 0x80 PUSH1 0x40 MSTORE PUSH1 0x4 CALLDATASIZE LT PUSH2 0x4A JUMPI PUSH1 0x0 CALLDATALOAD PUSH1 0xE0 SHR DUP1 PUSH4 0x12B33381 EQ PUSH2 0x4F JUMPI DUP1 PUSH4 0x2565B1B8 EQ PUSH2 0x8C JUMPI DUP1 PUSH4 0xD0E30DB0 EQ PUSH2 0xC9 JUMPI DUP1 PUSH4 0xD2FF791F EQ PUSH2 0xD3 JUMPI DUP1 PUSH4 0xD8180497 EQ PUSH2 0xFE JUMPI JUMPDEST PUSH1 0x0 DUP1 REVERT JUMPDEST CALLVALUE DUP1 ISZERO PUSH2 0x5B JUMPI PUSH1 0x0 DUP1 REVERT JUMPDEST POP PUSH2 0x76 PUSH1 0x4 DUP1 CALLDATASIZE SUB DUP2 ADD SWAP1 PUSH2 0x71 SWAP2 SWAP1 PUSH2 0x668 JUMP JUMPDEST PUSH2 0x129 JUMP JUMPDEST PUSH1 0x40 MLOAD PUSH2 0x83 SWAP2 SWAP1 PUSH2 0x6C3 JUMP JUMPDEST PUSH1 0x40 MLOAD DUP1 SWAP2 SUB SWAP1 RETURN JUMPDEST CALLVALUE DUP1 ISZERO PUSH2 0x98 JUMPI PUSH1 0x0 DUP1 REVERT JUMPDEST POP PUSH2 0xB3 PUSH1 0x4 DUP1 CALLDATASIZE SUB DUP2 ADD SWAP1 PUSH2 0xAE SWAP2 SWAP1 PUSH2 0x6DE JUMP JUMPDEST PUSH2 0x294 JUMP JUMPDEST PUSH1 0x40 MLOAD PUSH2 0xC0 SWAP2 SWAP1 PUSH2 0x6C3 JUMP JUMPDEST PUSH1 0x40 MLOAD DUP1 SWAP2 SUB SWAP1 RETURN JUMPDEST PUSH2 0xD1 PUSH2 0x3FE JUMP JUMPDEST STOP JUMPDEST CALLVALUE DUP1 ISZERO PUSH2 0xDF JUMPI PUSH1 0x0 DUP1 REVERT JUMPDEST POP PUSH2 0xE8 PUSH2 0x4E7 JUMP JUMPDEST PUSH1 0x40 MLOAD PUSH2 0xF5 SWAP2 SWAP1 PUSH2 0x71A JUMP JUMPDEST PUSH1 0x40 MLOAD DUP1 SWAP2 SUB SWAP1 RETURN JUMPDEST CALLVALUE DUP1 ISZERO PUSH2 0x10A JUMPI PUSH1 0x0 DUP1 REVERT JUMPDEST POP PUSH2 0x113 PUSH2 0x583 JUMP JUMPDEST PUSH1 0x40 MLOAD PUSH2 0x120 SWAP2 SWAP1 PUSH2 0x71A JUMP JUMPDEST PUSH1 0x40 MLOAD DUP1 SWAP2 SUB SWAP1 RETURN JUMPDEST PUSH1 0x0 PUSH1 0x1 PUSH1 0x0 CALLER PUSH20 0xFFFFFFFFFFFFFFFFFFFFFFFFFFFFFFFFFFFFFFFF AND PUSH20 0xFFFFFFFFFFFFFFFFFFFFFFFFFFFFFFFFFFFFFFFF AND DUP2 MSTORE PUSH1 0x20 ADD SWAP1 DUP2 MSTORE PUSH1 0x20 ADD PUSH1 0x0 KECCAK256 SLOAD DUP3 GT ISZERO PUSH2 0x1AD JUMPI PUSH1 0x40 MLOAD PUSH32 0x8C379A000000000000000000000000000000000000000000000000000000000 DUP2 MSTORE PUSH1 0x4 ADD PUSH2 0x1A4 SWAP1 PUSH2 0x792 JUMP JUMPDEST PUSH1 0x40 MLOAD DUP1 SWAP2 SUB SWAP1 REVERT JUMPDEST DUP2 PUSH1 0x1 PUSH1 0x0 CALLER PUSH20 0xFFFFFFFFFFFFFFFFFFFFFFFFFFFFFFFFFFFFFFFF AND PUSH20 0xFFFFFFFFFFFFFFFFFFFFFFFFFFFFFFFFFFFFFFFF AND DUP2 MSTORE PUSH1 0x20 ADD SWAP1 DUP2 MSTORE PUSH1 0x20 ADD PUSH1 0x0 KECCAK256 PUSH1 0x0 DUP3 DUP3 SLOAD PUSH2 0x1FC SWAP2 SWAP1 PUSH2 0x7E1 JUMP JUMPDEST SWAP3 POP POP DUP2 SWAP1 SSTORE POP PUSH1 0x0 DUP4 PUSH20 0xFFFFFFFFFFFFFFFFFFFFFFFFFFFFFFFFFFFFFFFF AND PUSH2 0x8FC DUP5 SWAP1 DUP2 ISZERO MUL SWAP1 PUSH1 0x40 MLOAD PUSH1 0x0 PUSH1 0x40 MLOAD DUP1 DUP4 SUB DUP2 DUP6 DUP9 DUP9 CALL SWAP4 POP POP POP POP SWAP1 POP DUP4 PUSH20 0xFFFFFFFFFFFFFFFFFFFFFFFFFFFFFFFFFFFFFFFF AND PUSH32 0x69CA02DD4EDD7BF0A4ABB9ED3B7AF3F14778DB5D61921C7DC7CD545266326DE2 DUP5 PUSH1 0x40 MLOAD PUSH2 0x282 SWAP2 SWAP1 PUSH2 0x71A JUMP JUMPDEST PUSH1 0x40 MLOAD DUP1 SWAP2 SUB SWAP1 LOG2 DUP1 SWAP2 POP POP SWAP3 SWAP2 POP POP JUMP JUMPDEST PUSH1 0x0 PUSH1 0x1 PUSH1 0x0 CALLER PUSH20 0xFFFFFFFFFFFFFFFFFFFFFFFFFFFFFFFFFFFFFFFF AND PUSH20 0xFFFFFFFFFFFFFFFFFFFFFFFFFFFFFFFFFFFFFFFF AND DUP2 MSTORE PUSH1 0x20 ADD SWAP1 DUP2 MSTORE PUSH1 0x20 ADD PUSH1 0x0 KECCAK256 SLOAD DUP3 GT ISZERO PUSH2 0x318 JUMPI PUSH1 0x40 MLOAD PUSH32 0x8C379A000000000000000000000000000000000000000000000000000000000 DUP2 MSTORE PUSH1 0x4 ADD PUSH2 0x30F SWAP1 PUSH2 0x792 JUMP JUMPDEST PUSH1 0x40 MLOAD DUP1 SWAP2 SUB SWAP1 REVERT JUMPDEST DUP2 PUSH1 0x1 PUSH1 0x0 CALLER PUSH20 0xFFFFFFFFFFFFFFFFFFFFFFFFFFFFFFFFFFFFFFFF AND PUSH20 0xFFFFFFFFFFFFFFFFFFFFFFFFFFFFFFFFFFFFFFFF AND DUP2 MSTORE PUSH1 0x20 ADD SWAP1 DUP2 MSTORE PUSH1 0x20 ADD PUSH1 0x0 KECCAK256 PUSH1 0x0 DUP3 DUP3 SLOAD PUSH2 0x367 SWAP2 SWAP1 PUSH2 0x7E1 JUMP JUMPDEST SWAP3 POP POP DUP2 SWAP1 SSTORE POP PUSH1 0x0 CALLER PUSH20 0xFFFFFFFFFFFFFFFFFFFFFFFFFFFFFFFFFFFFFFFF AND PUSH2 0x8FC DUP5 SWAP1 DUP2 ISZERO MUL SWAP1 PUSH1 0x40 MLOAD PUSH1 0x0 PUSH1 0x40 MLOAD DUP1 DUP4 SUB DUP2 DUP6 DUP9 DUP9 CALL SWAP4 POP POP POP POP SWAP1 POP CALLER PUSH20 0xFFFFFFFFFFFFFFFFFFFFFFFFFFFFFFFFFFFFFFFF AND PUSH32 0xF3FEF3A3F44F9C277339B67D54F015748BD8D6B77A985B0AB6E71126B018C34A DUP5 PUSH1 0x40 MLOAD PUSH2 0x3ED SWAP2 SWAP1 PUSH2 0x71A JUMP JUMPDEST PUSH1 0x40 MLOAD DUP1 SWAP2 SUB SWAP1 LOG2 DUP1 SWAP2 POP POP SWAP2 SWAP1 POP JUMP JUMPDEST PUSH1 0x0 CALLVALUE GT PUSH2 0x441 JUMPI PUSH1 0x40 MLOAD PUSH32 0x8C379A000000000000000000000000000000000000000000000000000000000 DUP2 MSTORE PUSH1 0x4 ADD PUSH2 0x438 SWAP1 PUSH2 0x887 JUMP JUMPDEST PUSH1 0x40 MLOAD DUP1 SWAP2 SUB SWAP1 REVERT JUMPDEST CALLVALUE PUSH1 0x1 PUSH1 0x0 CALLER PUSH20 0xFFFFFFFFFFFFFFFFFFFFFFFFFFFFFFFFFFFFFFFF AND PUSH20 0xFFFFFFFFFFFFFFFFFFFFFFFFFFFFFFFFFFFFFFFF AND DUP2 MSTORE PUSH1 0x20 ADD SWAP1 DUP2 MSTORE PUSH1 0x20 ADD PUSH1 0x0 KECCAK256 PUSH1 0x0 DUP3 DUP3 SLOAD PUSH2 0x490 SWAP2 SWAP1 PUSH2 0x8A7 JUMP JUMPDEST SWAP3 POP POP DUP2 SWAP1 SSTORE POP CALLER PUSH20 0xFFFFFFFFFFFFFFFFFFFFFFFFFFFFFFFFFFFFFFFF AND PUSH32 0xE1FFFCC4923D04B559F4D29A8BFC6CDA04EB5B0D3C460751C2402C5C5CC9109C CALLVALUE PUSH1 0x40 MLOAD PUSH2 0x4DD SWAP2 SWAP1 PUSH2 0x71A JUMP JUMPDEST PUSH1 0x40 MLOAD DUP1 SWAP2 SUB SWAP1 LOG2 JUMP JUMPDEST PUSH1 0x0 CALLER PUSH20 0xFFFFFFFFFFFFFFFFFFFFFFFFFFFFFFFFFFFFFFFF AND PUSH1 0x0 DUP1 SLOAD SWAP1 PUSH2 0x100 EXP SWAP1 DIV PUSH20 0xFFFFFFFFFFFFFFFFFFFFFFFFFFFFFFFFFFFFFFFF AND PUSH20 0xFFFFFFFFFFFFFFFFFFFFFFFFFFFFFFFFFFFFFFFF AND EQ PUSH2 0x577 JUMPI PUSH1 0x40 MLOAD PUSH32 0x8C379A000000000000000000000000000000000000000000000000000000000 DUP2 MSTORE PUSH1 0x4 ADD PUSH2 0x56E SWAP1 PUSH2 0x96F JUMP JUMPDEST PUSH1 0x40 MLOAD DUP1 SWAP2 SUB SWAP1 REVERT JUMPDEST PUSH1 0x0 SELFBALANCE SWAP1 POP DUP1 SWAP2 POP POP SWAP1 JUMP JUMPDEST PUSH1 0x0 DUP1 PUSH1 0x1 PUSH1 0x0 CALLER PUSH20 0xFFFFFFFFFFFFFFFFFFFFFFFFFFFFFFFFFFFFFFFF AND PUSH20 0xFFFFFFFFFFFFFFFFFFFFFFFFFFFFFFFFFFFFFFFF AND DUP2 MSTORE PUSH1 0x20 ADD SWAP1 DUP2 MSTORE PUSH1 0x20 ADD PUSH1 0x0 KECCAK256 SLOAD SWAP1 POP DUP1 SWAP2 POP POP SWAP1 JUMP JUMPDEST PUSH1 0x0 DUP1 REVERT JUMPDEST PUSH1 0x0 PUSH20 0xFFFFFFFFFFFFFFFFFFFFFFFFFFFFFFFFFFFFFFFF DUP3 AND SWAP1 POP SWAP2 SWAP1 POP JUMP JUMPDEST PUSH1 0x0 PUSH2 0x5FF DUP3 PUSH2 0x5D4 JUMP JUMPDEST SWAP1 POP SWAP2 SWAP1 POP JUMP JUMPDEST PUSH2 0x60F DUP2 PUSH2 0x5F4 JUMP JUMPDEST DUP2 EQ PUSH2 0x61A JUMPI PUSH1 0x0 DUP1 REVERT JUMPDEST POP JUMP JUMPDEST PUSH1 0x0 DUP2 CALLDATALOAD SWAP1 POP PUSH2 0x62C DUP2 PUSH2 0x606 JUMP JUMPDEST SWAP3 SWAP2 POP POP JUMP JUMPDEST PUSH1 0x0 DUP2 SWAP1 POP SWAP2 SWAP1 POP JUMP JUMPDEST PUSH2 0x645 DUP2 PUSH2 0x632 JUMP JUMPDEST DUP2 EQ PUSH2 0x650 JUMPI PUSH1 0x0 DUP1 REVERT JUMPDEST POP JUMP JUMPDEST PUSH1 0x0 DUP2 CALLDATALOAD SWAP1 POP PUSH2 0x662 DUP2 PUSH2 0x63C JUMP JUMPDEST SWAP3 SWAP2 POP POP JUMP JUMPDEST PUSH1 0x0 DUP1 PUSH1 0x40 DUP4 DUP6 SUB SLT ISZERO PUSH2 0x67F JUMPI PUSH2 0x67E PUSH2 0x5CF JUMP JUMPDEST JUMPDEST PUSH1 0x0 PUSH2 0x68D DUP6 DUP3 DUP7 ADD PUSH2 0x61D JUMP JUMPDEST SWAP3 POP POP PUSH1 0x20 PUSH2 0x69E DUP6 DUP3 DUP7 ADD PUSH2 0x653 JUMP JUMPDEST SWAP2 POP POP SWAP3 POP SWAP3 SWAP1 POP JUMP JUMPDEST PUSH1 0x0 DUP2 ISZERO ISZERO SWAP1 POP SWAP2 SWAP1 POP JUMP JUMPDEST PUSH2 0x6BD DUP2 PUSH2 0x6A8 JUMP JUMPDEST DUP3 MSTORE POP POP JUMP JUMPDEST PUSH1 0x0 PUSH1 0x20 DUP3 ADD SWAP1 POP PUSH2 0x6D8 PUSH1 0x0 DUP4 ADD DUP5 PUSH2 0x6B4 JUMP JUMPDEST SWAP3 SWAP2 POP POP JUMP JUMPDEST PUSH1 0x0 PUSH1 0x20 DUP3 DUP5 SUB SLT ISZERO PUSH2 0x6F4 JUMPI PUSH2 0x6F3 PUSH2 0x5CF JUMP JUMPDEST JUMPDEST PUSH1 0x0 PUSH2 0x702 DUP5 DUP3 DUP6 ADD PUSH2 0x653 JUMP JUMPDEST SWAP2 POP POP SWAP3 SWAP2 POP POP JUMP JUMPDEST PUSH2 0x714 DUP2 PUSH2 0x632 JUMP JUMPDEST DUP3 MSTORE POP POP JUMP JUMPDEST PUSH1 0x0 PUSH1 0x20 DUP3 ADD SWAP1 POP PUSH2 0x72F PUSH1 0x0 DUP4 ADD DUP5 PUSH2 0x70B JUMP JUMPDEST SWAP3 SWAP2 POP POP JUMP JUMPDEST PUSH1 0x0 DUP3 DUP3 MSTORE PUSH1 0x20 DUP3 ADD SWAP1 POP SWAP3 SWAP2 POP POP JUMP JUMPDEST PUSH32 0x496E73756666656369656E742046756E64000000000000000000000000000000 PUSH1 0x0 DUP3 ADD MSTORE POP JUMP JUMPDEST PUSH1 0x0 PUSH2 0x77C PUSH1 0x11 DUP4 PUSH2 0x735 JUMP JUMPDEST SWAP2 POP PUSH2 0x787 DUP3 PUSH2 0x746 JUMP JUMPDEST PUSH1 0x20 DUP3 ADD SWAP1 POP SWAP2 SWAP1 POP JUMP JUMPDEST PUSH1 0x0 PUSH1 0x20 DUP3 ADD SWAP1 POP DUP2 DUP2 SUB PUSH1 0x0 DUP4 ADD MSTORE PUSH2 0x7AB DUP2 PUSH2 0x76F JUMP JUMPDEST SWAP1 POP SWAP2 SWAP1 POP JUMP JUMPDEST PUSH32 0x4E487B7100000000000000000000000000000000000000000000000000000000 PUSH1 0x0 MSTORE PUSH1 0x11 PUSH1 0x4 MSTORE PUSH1 0x24 PUSH1 0x0 REVERT JUMPDEST PUSH1 0x0 PUSH2 0x7EC DUP3 PUSH2 0x632 JUMP JUMPDEST SWAP2 POP PUSH2 0x7F7 DUP4 PUSH2 0x632 JUMP JUMPDEST SWAP3 POP DUP3 DUP3 LT ISZERO PUSH2 0x80A JUMPI PUSH2 0x809 PUSH2 0x7B2 JUMP JUMPDEST JUMPDEST DUP3 DUP3 SUB SWAP1 POP SWAP3 SWAP2 POP POP JUMP JUMPDEST PUSH32 0x416D6F75742073686F756C642062652067726561746572207468616E6E207A65 PUSH1 0x0 DUP3 ADD MSTORE PUSH32 0x726F000000000000000000000000000000000000000000000000000000000000 PUSH1 0x20 DUP3 ADD MSTORE POP JUMP JUMPDEST PUSH1 0x0 PUSH2 0x871 PUSH1 0x22 DUP4 PUSH2 0x735 JUMP JUMPDEST SWAP2 POP PUSH2 0x87C DUP3 PUSH2 0x815 JUMP JUMPDEST PUSH1 0x40 DUP3 ADD SWAP1 POP SWAP2 SWAP1 POP JUMP JUMPDEST PUSH1 0x0 PUSH1 0x20 DUP3 ADD SWAP1 POP DUP2 DUP2 SUB PUSH1 0x0 DUP4 ADD MSTORE PUSH2 0x8A0 DUP2 PUSH2 0x864 JUMP JUMPDEST SWAP1 POP SWAP2 SWAP1 POP JUMP JUMPDEST PUSH1 0x0 PUSH2 0x8B2 DUP3 PUSH2 0x632 JUMP JUMPDEST SWAP2 POP PUSH2 0x8BD DUP4 PUSH2 0x632 JUMP JUMPDEST SWAP3 POP DUP3 PUSH32 0xFFFFFFFFFFFFFFFFFFFFFFFFFFFFFFFFFFFFFFFFFFFFFFFFFFFFFFFFFFFFFFFF SUB DUP3 GT ISZERO PUSH2 0x8F2 JUMPI PUSH2 0x8F1 PUSH2 0x7B2 JUMP JUMPDEST JUMPDEST DUP3 DUP3 ADD SWAP1 POP SWAP3 SWAP2 POP POP JUMP JUMPDEST PUSH32 0x4F6E6C79204F776E65722043616E20436865636B20546F74616C2042616C616E PUSH1 0x0 DUP3 ADD MSTORE PUSH32 0x6365000000000000000000000000000000000000000000000000000000000000 PUSH1 0x20 DUP3 ADD MSTORE POP JUMP JUMPDEST PUSH1 0x0 PUSH2 0x959 PUSH1 0x22 DUP4 PUSH2 0x735 JUMP JUMPDEST SWAP2 POP PUSH2 0x964 DUP3 PUSH2 0x8FD JUMP JUMPDEST PUSH1 0x40 DUP3 ADD SWAP1 POP SWAP2 SWAP1 POP JUMP JUMPDEST PUSH1 0x0 PUSH1 0x20 DUP3 ADD SWAP1 POP DUP2 DUP2 SUB PUSH1 0x0 DUP4 ADD MSTORE PUSH2 0x988 DUP2 PUSH2 0x94C JUMP JUMPDEST SWAP1 POP SWAP2 SWAP1 POP JUMP INVALID LOG2 PUSH5 0x6970667358 0x22 SLT KECCAK256 ADDMOD PUSH24 0xFFCD64CE60F15613CD1A62577F9613BB1C10C934F205C2E9 ADD GASLIMIT CODECOPY PUSH4 0x6A3B6473 PUSH16 0x6C634300080D00330000000000000000 "
				},
				"gasEstimates": {
					"creation": {
						"codeDepositCost": "500200",
						"executionCost": "24803",
						"totalCost": "525003"
					},
					"external": {
						"deposit()": "infinite",
						"my_balanca()": "2605",
						"total_balance()": "2665",
						"transfer_balance(address,uint256)": "infinite",
						"withdraw_balance(uint256)": "infinite"
					}
				},
				"methodIdentifiers": {
					"deposit()": "d0e30db0",
					"my_balanca()": "d8180497",
					"total_balance()": "d2ff791f",
					"transfer_balance(address,uint256)": "12b33381",
					"withdraw_balance(uint256)": "2565b1b8"
				}
			},
			"storageLayout": {
				"storage": [
					{
						"astId": 3,
						"contract": "contracts/wallet.sol:Wallet",
						"label": "owner",
						"offset": 0,
						"slot": "0",
						"type": "t_address"
					},
					{
						"astId": 7,
						"contract": "contracts/wallet.sol:Wallet",
						"label": "balance",
						"offset": 0,
						"slot": "1",
						"type": "t_mapping(t_address,t_uint256)"
					}
				],
				"types": {
					"t_address": {
						"encoding": "inplace",
						"label": "address",
						"numberOfBytes": "20"
					},
					"t_mapping(t_address,t_uint256)": {
						"encoding": "mapping",
						"key": "t_address",
						"label": "mapping(address => uint256)",
						"numberOfBytes": "32",
						"value": "t_uint256"
					},
					"t_uint256": {
						"encoding": "inplace",
						"label": "uint256",
						"numberOfBytes": "32"
					}
				}
			},
			"userdoc": {
				"kind": "user",
				"methods": {},
				"version": 1
			}
		}
	}
}